:100000000C9446000C945D000C945D000C945D0013
:100010000C945D000C945D000C945D000C945D00EC
:100020000C945D000C945D000C945D000C945D00DC
:100030000C945D000C945D000C945D000C945D00CC
:100040000C945D000C945D000C945D000C945D00BC
:100050000C945D000C945D000C945D000C945D00AC
:100060000C945D000C945D000C945D000C945D009C
:100070000C945D000C945D000C945D000C945D008C
:100080000C945D000C945D000C945D0011241FBE67
:10009000CFEFD0E4DEBFCDBF11E0A0E0B1E0E4E7F8
:1000A000F1E000E00BBF02C007900D92AE30B10747
:1000B000D9F70E9494000C94B8000C940000CF93E0
:1000C000C82F8A3019F48DE00E945F009091C00023
:1000D00095FFFCCFC093C60080E090E0CF910895DB
:1000E00011B887E880937A0080E480937C000895BB
:1000F0008770806480937C00EAE7F0E08081806410
:10010000808380917A0084FFFCCFEAE7F0E0808171
:1001100080618083209178008091790090E0982F11
:100120008827820F911D08958FEF84B915B88AB979
:100130001BB80E94700080E00E947800EC0181E012
:100140000E9478008C0182E00E947800C159D14061
:10015000C73CD10538F401591140073C110520F086
:1001600080E003C080E001C081E01BB885B9E3CF27
:04017000F894FFCF31
:0E01740000000002000000005F00000000001C
:00000001FF
