:100000000C9446000C9465000C9465000C946500FB
:100010000C9465000C9465000C9465000C946500CC
:100020000C9465000C9465000C9465000C946500BC
:100030000C9465000C94DF000C9465000C94650032
:100040000C9465000C9465000C9465000C9465009C
:100050000C9465000C9465000C9465000C9465008C
:100060000C9465000C9465000C9465000C9465007C
:100070000C9465000C9465000C9465000C9465006C
:100080000C9465000C9465000C94650011241FBE4F
:10009000CFEFD0E4DEBFCDBF13E0A0E0B1E0E6E2F9
:1000A000F9E000E00BBF02C007900D92AE30B1073F
:1000B000D9F713E0AEE0B3E001C01D92AE31B10755
:1000C000E1F70E9458040C9491040C940000CF9323
:1000D000C82F8A3019F48DE00E9467009091C0000B
:1000E00095FFFCCFC093C60080E090E0CF910895CB
:1000F00011B887E880937A0080E480937C000895AB
:100100008770806480937C00EAE7F0E080818064FF
:10011000808380917A0084FFFCCFEAE7F0E0808161
:1001200080618083209178008091790090E0982F01
:100130008827820F911D08952C9808952C9A089570
:1001400083EB84B9289A26982C9A81E58CBD089572
:100150008EBD0DB407FEFDCF08958FEF8EBD0DB49B
:1001600007FEFDCF8EB508958BE0809381008DE76B
:1001700090E0909389008093880082E080936F00E4
:1001800010928500109284008091000190910101ED
:10019000A0910201B091030180930E0390930F038D
:1001A000A0931003B09311038FB780688FBF089599
:1001B00010928100089581E08093120308951F92A8
:1001C0000F920FB60F9211240BB60F922F933F93FD
:1001D0004F935F936F937F938F939F93AF93BF934F
:1001E000EF93FF9380910E0390910F03A091100362
:1001F000B09111030197A109B10980930E03909367
:100200000F03A0931003B0931103892B8A2B8B2B20
:1002100091F40E94DB008091000190910101A09176
:100220000201B091030180930E0390930F03A093FA
:100230001003B0931103FF91EF91BF91AF919F9184
:100240008F917F916F915F914F913F912F910F907F
:100250000BBE0F900FBE0F901F901895609300017A
:1002600070930101809302019093030160930E0348
:1002700070930F0380931003909311030895CF930D
:10028000C82F29980E949C008C2F0E94A800299AB0
:100290000E949E00CF910895CF92DF92EF92FF923D
:1002A0000F931F93CF93DF938C01299A0E949C0098
:1002B000F80101900020E9F731977F01E01AF10A77
:1002C000C0E0D0E025C0F801EC0FFD1F20813327EE
:1002D00027FD309520523109F901EE0FFF1FEE0F77
:1002E000FF1FE20FF31FEC0DFD1DEE5EFE4F808140
:1002F0000E94A8008FEFC81AD80A02C0C12CD12CC6
:1003000085E0C816D104FCF280E00E94A800219686
:10031000CE15DF059CF30E949E00DF91CF911F91C7
:100320000F91FF90EF90DF90CF90089528982FEFD6
:1003300080E792E0215080409040E1F700C000004B
:10034000289A08950E94960181E20E943F0180EC64
:100350000E943F0187E00E943F0183E10E943F012C
:1003600080E20E943F018CE00E943F010895CF93FC
:10037000C62F0E943F018C2F0E943F01CF9108950C
:10038000CF93DF930E949C00299AC0E0D0E004C084
:1003900080E00E94A8002196C83F81E0D807C4F3FE
:1003A00029980E949E00DF91CF9108950F931F938B
:1003B000CF93DF938C010E949C00299AC0E0D0E08B
:1003C00007C0F801EC0FFD1F80810E94A800219654
:1003D000C83F81E0D807ACF329980E949E00DF91C6
:1003E000CF911F910F91089580911603909117035B
:1003F00081309105B1F040F08230910509F460C080
:10040000039709F414C2089581E090E090931703D4
:100410008093160310921B03109215031092180379
:100420000895309941C082E090E090931703809343
:10043000160380911503837080931B0381110BC0F9
:100440000E94C00160E880E40E94B70182EF92E060
:100450000E944C0126C0813059F40E94C00160E81E
:1004600080E40E94B70185EF92E00E944C0119C020
:10047000823059F40E94C00160E880E40E94B70114
:100480008AEF92E00E944C010CC0833051F40E942C
:10049000C00160E880E40E94B70180E093E00E9420
:1004A0004C01109215030895809115038F5F80937E
:1004B000150381E090E0909317038093160308954D
:1004C000809115038F5F8093150340911303509122
:1004D0001403BA0161597140673C710508F054C0BA
:1004E00020911C0330911D0321593140273C3105D7
:1004F00008F04AC090911B0391113FC08370809314
:100500001B0310921503909118039F5F909318039B
:1005100081110BC00E94C00160E880E40E94B70115
:1005200082EF92E00E944C010895813059F40E94BC
:10053000C00160E880E40E94B70185EF92E00E946C
:100540004C010895823059F40E94C00160E880E4B3
:100550000E94B7018AEF92E00E944C010895833017
:1005600009F07EC10E94C00160E880E40E94B701EA
:1005700080E093E00E944C01089583E090E0909326
:10058000170380931603089520911C0330911D03D7
:10059000253893E039070CF44EC0673C710508F02C
:1005A0004AC090911B0391113FC0837080931B033D
:1005B00010921503909118039F5F90931803811177
:1005C0000BC00E94C00160E880E40E94B70182EF86
:1005D00092E00E944C010895813059F40E94C001BC
:1005E00060E880E40E94B70185EF92E00E944C0130
:1005F0000895823059F40E94C00160E880E40E94AE
:10060000B7018AEF92E00E944C010895833009F00F
:1006100027C10E94C00160E880E40E94B70180E029
:1006200093E00E944C01089583E090E090931703BB
:10063000809316030895243631050CF04FC0673CB3
:10064000710508F04BC090911B03933009F03FC037
:10065000837080931B0310921503909118039F5F82
:100660009093180381110BC00E94C00160E880E4E0
:100670000E94B70182EF92E00E944C010895813000
:1006800059F40E94C00160E880E40E94B70185EF40
:1006900092E00E944C010895823059F40E94C001FA
:1006A00060E880E40E94B7018AEF92E00E944C016A
:1006B0000895833009F0D4C00E94C00160E880E44E
:1006C0000E94B70180E093E00E944C01089583E00E
:1006D00090E09093170380931603089544365105D4
:1006E0000CF052C0B90161597140673C710508F0C6
:1006F0004BC090911B03923009F03FC083708093F0
:100700001B0310921503909118039F5F9093180399
:1007100081110BC00E94C00160E880E40E94B70113
:1007200082EF92E00E944C010895813059F40E94BA
:10073000C00160E880E40E94B70185EF92E00E946A
:100740004C010895823059F40E94C00160E880E4B1
:100750000E94B7018AEF92E00E944C010895833015
:1007600009F07EC00E94C00160E880E40E94B701E9
:1007700080E093E00E944C01089583E090E0909324
:100780001703809316030895453853400CF468C04E
:1007900021593140273C310508F062C090911B037C
:1007A0009130F1F5837080931B03109215039091A3
:1007B00018039F5F9093180381110BC00E94C00122
:1007C00060E880E40E94B70182EF92E00E944C0151
:1007D0000895813059F40E94C00160E880E40E94CD
:1007E000B70185EF92E00E944C010895823059F4E0
:1007F0000E94C00160E880E40E94B7018AEF92E0A5
:100800000E944C010895833059F50E94C00160E8B0
:1008100080E40E94B70180E093E00E944C010895BB
:1008200083E090E0909317038093160308950E944D
:10083000C00160E880E40E94B70185E093E00E9477
:100840004C0160E880E80E94B7018091180390E0B5
:100850000E944C0181E090E090931703809316036F
:1008600008958091190390911A03009719F0019748
:1008700081F00895109214031092130310921D0337
:1008800010921C0381E090E090931A038093190367
:10089000089580E00E9480009093140380931303D6
:1008A00081E00E94800090931D0380931C030895B3
:1008B0008FEF84B915B88AB91BB80E9478000E94DE
:1008C000A0000E94A2010E94C00160E880E40E9492
:1008D000B70161E070E080E090E00E942E010E948C
:1008E000B4000F2EF4E6CF2ED12CE12CF12CF02DFC
:1008F0000E94310484E6C816D104E104F10429F40D
:100900000E94F401C12CD12C76018091120388231E
:10091000E1F3109212038FEFC81AD80AE80AF80A16
:06092000E7CFF894FFCFC1
:100926000100000000000002000000006700000057
:100936000000000000000000005F00000007000744
:1009460000147F147F14242A7F2A1223130864625A
:1009560036495522500005030000001C22410000C4
:1009660041221C0014083E081408083E08080050DE
:100976003000000808080808006060000020100821
:1009860004023E5149453E00427F400042615149C2
:10099600462141454B311814127F102745454539EC
:1009A6003C4A494930017109050336494949360629
:1009B6004949291E00363600000056360000081444
:1009C6002241001414141414004122140802015187
:1009D6000906324979413E7E1111117E7F49494906
:1009E600363E414141227F4141221C7F49494941CE
:1009F6007F090909013E4149497A7F0808087F00B5
:100A0600417F41002040413F017F081422417F4041
:100A16004040407F020C027F7F0408107F3E414128
:100A2600413E7F090909063E4151215E7F09192988
:100A360046464949493101017F01013F4040403F57
:100A46001F2040201F3F4038403F631408146307AF
:100A5600087008076151494543007F41410002047F
:100A66000810200041417F0004020102044040407A
:100A76004040000102040020545454787F48444406
:100A8600383844444420384444487F385454541831
:100A9600087E0901020C5252523E7F080404780077
:100AA600447D40002040443D007F10284400004122
:100AB6007F40007C041804787C0804047838444499
:100AC60044387C14141408081414187C7C08040494
:100AD600084854545420043F4440203C4040207C65
:100AE6001C2040201C3C4030403C44281028440C2C
:100AF6005050503C4464544C4400083641000000B9
:100B06007F000000413608001008081008784641AA
:100B160046787570006C6566740072696768740063
:0E0B2600646F776E0067616D654F76657200D3
:00000001FF
