:100000000C9446000C945D000C945D000C945D0013
:100010000C945D000C945D000C945D000C945D00EC
:100020000C945D000C945D000C945D000C945D00DC
:100030000C945D000C945D000C945D000C945D00CC
:100040000C945D000C945D000C945D000C945D00BC
:100050000C945D000C945D000C945D000C945D00AC
:100060000C945D000C945D000C945D000C945D009C
:100070000C945D000C945D000C945D000C945D008C
:100080000C945D000C945D000C945D0011241FBE67
:10009000CFEFD0E4DEBFCDBF12E0A0E0B1E0E0EBF7
:1000A000F3E000E00BBF02C007900D92A43FB10740
:1000B000D9F70E9461010C94D6010C940000CF93F3
:1000C000C82F8A3019F48DE00E945F009091C00023
:1000D00095FFFCCFC093C60080E090E0CF910895DB
:1000E00011B887E880937A0080E480937C000895BB
:1000F0008770806480937C00EAE7F0E08081806410
:10010000808380917A0084FFFCCFEAE7F0E0808171
:1001100080618083209178008091790090E0982F11
:100120008827820F911D08952C9808952C9A089580
:1001300083EB84B9289A26982C9A81E58CBD089582
:100140008EBD0DB407FEFDCF08958FEF8EBD0DB4AB
:1001500007FEFDCF8EB50895CF93C82F29980E9432
:1001600094008C2F0E94A000299A0E949600CF91A3
:100170000895CF92DF92EF92FF920F931F93CF9348
:10018000DF938C01299A0E949400F80101900020CD
:10019000E9F731977F01E01AF10AC0E0D0E025C00D
:1001A000F801EC0FFD1F2081332727FD30952052E9
:1001B0003109F901EE0FFF1FEE0FFF1FE20FF31FD2
:1001C000EC0DFD1DE25FFE4F80810E94A0008FEFCD
:1001D000C81AD80A02C0C12CD12C85E0C816D10497
:1001E000FCF280E00E94A0002196CE15DF059CF372
:1001F0000E949600DF91CF911F910F91FF90EF9099
:10020000DF90CF90089528982FEF80E792E021505B
:1002100080409040E1F700C00000289A08950E94B5
:10022000030181E20E94AC0080EC0E94AC0087E0F8
:100230000E94AC0083E10E94AC0080E20E94AC000E
:100240008CE00E94AC000895CF93C62F0E94AC00B2
:100250008C2F0E94AC00CF910895CF93DF930E9422
:100260009400299AC0E0D0E004C080E00E94A00081
:100270002196C83F81E0D807C4F329980E949600D0
:10028000DF91CF9108950F931F93CF93DF938C014C
:100290000E949400299AC0E0D0E007C0F801EC0F5A
:1002A000FD1F80810E94A0002196C83F81E0D807F1
:1002B000ACF329980E949600DF91CF911F910F9186
:1002C00008958FEF84B915B88AB91BB80E947000E1
:1002D0000E9498000E940F010E942D0160E880E4B6
:1002E0000E9424018EEE92E00E94B900E12CF12CD4
:1002F00000E010E080E00E947800EC0181E00E94C4
:1003000078009E0121593140273C310530F4AC0181
:1003100041595140473C5105F8F0853843E0940776
:100320001CF0273C310500F1843691051CF4273C74
:10033000310500F1C436D10534F49C012159314016
:10034000273C3105E8F0C538D3404CF18159914044
:10035000873C9105E8F023C0E12CF12C00E010E08F
:100360006894DD24D4F81BC0E12CF12C00E011E0EE
:10037000D12C15C0E12CF12C08E010E0D12C0FC0DD
:10038000E12C6894FF24F2F800E010E0D12C07C0C3
:100390006894EE24E1F8F12C00E010E0D12C812FDC
:1003A0008E298F29802B8D298BB9A4CFF894FFCF6C
:1003B00000000002000000005F00000000000000DC
:1003C00000000000005F00000007000700147F1419
:1003D0007F14242A7F2A1223130864623649552287
:1003E000500005030000001C2241000041221C00B7
:1003F00014083E081408083E0808005030000008A1
:1004000008080808006060000020100804023E513F
:1004100049453E00427F40004261514946214145E5
:100420004B311814127F1027454545393C4A49493C
:100430003001710905033649494936064949291EE3
:100440000036360000005636000008142241001421
:1004500014141414004122140802015109063249EF
:1004600079413E7E1111117E7F494949363E414115
:1004700041227F4141221C7F494949417F090909A5
:10048000013E4149497A7F0808087F00417F4100C9
:100490002040413F017F081422417F404040407F7F
:1004A000020C027F7F0408107F3E4141413E7F09DC
:1004B0000909063E4151215E7F09192946464949ED
:1004C000493101017F01013F4040403F1F20402052
:1004D0001F3F4038403F6314081463070870080743
:1004E0006151494543007F4141000204081020004A
:1004F00041417F00040201020440404040400001AD
:1005000002040020545454787F484444383844440A
:100510004420384444487F3854545418087E090114
:10052000020C5252523E7F0804047800447D400081
:100530002040443D007F1028440000417F40007C63
:10054000041804787C0804047838444444387C1443
:10055000141408081414187C7C0804040848545423
:100560005420043F4440203C4040207C1C2040203C
:100570001C3C4030403C44281028440C5050503C17
:100580004464544C44000836410000007F000000E1
:1005900041360800100808100878464146786C6516
:0405A000667400007D
:00000001FF
